:100000000C942A000C9434000C9434000C943400AA
:100010000C9434000C9434000C9434000C94340090
:100020000C9434000C9434000C9434000C94340080
:100030000C9434000C9434000C9434000C94340070
:100040000C9434000C9434000C9434000C94340060
:100050000C94340011241FBECFE5D8E0DEBFCDBF25
:100060000E9436000C9454000C9400001ABA8FEFD2
:1000700087BBA9E3B0E0E8E3F0E041E432E323E347
:1000800091E38C918370813049F0813028F0823087
:1000900039F08330B1F706C04083F3CF9083F1CFBE
:0C00A0003083EFCF2083EDCFF894FFCF2A
:00000001FF
