:100000000C942A000C943F000C943F000C943F0089
:100010000C943F000C943F000C943F000C943F0064
:100020000C943F000C943F000C943F000C943F0054
:100030000C943F000C943F000C943F000C943F0044
:100040000C943F000C943F000C943F000C943F0034
:100050000C943F0011241FBECFE5D8E0DEBFCDBF1A
:1000600010E0A0E6B0E0E0EDF0E002C005900D92F7
:10007000A836B107D9F70E9441000C9466000C9491
:100080000000CF93DF93CDB7DEB727970FB6F89474
:10009000DEBF0FBECDBF8FEF87BB87E0E0E6F0E0AD
:1000A000DE01119601900D928A95E1F780E00BC078
:1000B000E1E0F0E0EC0FFD1FE80FF11D87FDFA9580
:1000C000908198BB8F5F87309CF3FFCFF894FFCF70
:0800D000FDFEFF000102030028
:00000001FF
