:100000000C942A000C9434000C9434000C943400AA
:100010000C9434000C9434000C9434000C94340090
:100020000C9434000C9434000C9434000C94340080
:100030000C9434000C9434000C9434000C94340070
:100040000C9434000C9434000C9434000C94340060
:100050000C94340011241FBECFE5D8E0DEBFCDBF25
:100060000E9436000C9456000C940000CF93DF934E
:100070008FEF87BBA0E0E8E3F0E0C0E1D7E249E121
:1000800050E0CA01742F692F8081809580839E0182
:10009000CA010197F1F721503040D1F7AF5FA83C7A
:1000A00099F780E090E0DF91CF910895F894FFCF29
:00000001FF
