:100000000C942A000C9434000C9434000C943400AA
:100010000C9434000C9434000C9434000C94340090
:100020000C9434000C9434000C9434000C94340080
:100030000C9434000C9434000C9434000C94340070
:100040000C9434000C9434000C9434000C94340060
:100050000C94340011241FBECFE5D8E0DEBFCDBF25
:100060000E9436000C944B000C940000E7E3F0E093
:1000700080818F7D8083E4E3F0E0808180688083ED
:10008000E6E3F0E0A5E3B0E0808185FFFDCF8C9151
:0A00900080688C93F9CFF894FFCF3D
:00000001FF
