:100000000C942A000C943F000C943F000C943F0089
:100010000C943F000C943F000C943F000C943F0064
:100020000C943F000C943F000C943F000C943F0054
:100030000C943F000C943F000C943F000C943F0044
:100040000C943F000C943F000C943F000C943F0034
:100050000C943F0011241FBECFE5D8E0DEBFCDBF1A
:1000600010E0A0E6B0E0ECEEF0E002C005900D92EA
:10007000A636B107D9F70E9441000C9474000C9485
:100080000000EF92FF920F931F93DF93CF9300D066
:1000900000D000D0CDB7DEB78FEF87BBDE01119661
:1000A000E0E6F0E086E001900D928150E1F760E03B
:1000B0007E010894E11CF11CA8E3B0E000E513EC1C
:1000C00049E150E070E0F701E60FF11D80818C936B
:1000D0009801CA010197F1F721503040D1F76F5FC5
:0C00E000653088F3672FEFCFF894FFCF56
:0600EC00303132414200F8
:00000001FF
