:100000000C942A000C9434000C9434000C943400AA
:100010000C9434000C9434000C9434000C94340090
:100020000C9434000C9434000C9434000C94340080
:100030000C9434000C9434000C9434000C94340070
:100040000C9434000C9434000C9434000C94340060
:100050000C94340011241FBECFE5D8E0DEBFCDBF25
:100060000E9436000C944D000C940000CF93DF9357
:100070008FEF8ABB87BB14BA82E085BBE3E3F0E075
:10008000CBE3D0E025E5A8E3B0E09AEA808181FFE8
:0E00900002C02883FBCF9C93F9CFF894FFCFDA
:00000001FF
