:100000000C942A000C943F000C943F000C943F0089
:100010000C943F000C943F000C943F000C943F0064
:100020000C943F000C943F000C943F000C943F0054
:100030000C943F000C943F000C943F000C943F0044
:100040000C943F000C943F000C943F000C943F0034
:100050000C943F0011241FBECFE5D8E0DEBFCDBF1A
:1000600010E0A0E6B0E0E2EFF0E002C005900D92F3
:10007000A836B107D9F70E9441000C9477000C9480
:100080000000EF92FF920F931F93DF93CF93CDB7B2
:10009000DEB727970FB6F894DEBF0FBECDBF8FEF48
:1000A00087BBDE011196E0E6F0E087E001900D925B
:1000B0008150E1F760E07E010894E11CF11CA8E3A7
:1000C000B0E000E117E249E150E070E0F701E60F2F
:1000D000F11D80818C939801CA010197F1F721509D
:1000E0003040D1F76F5F673088F3672FEFCFF89418
:0200F000FFCF40
:0800F200FDFEFF000102030006
:00000001FF
