S00F0000435F6578705F322E7372656395
S11300000C942A000C943F000C943F000C943F0085
S11300100C943F000C943F000C943F000C943F0060
S11300200C943F000C943F000C943F000C943F0050
S11300300C943F000C943F000C943F000C943F0040
S11300400C943F000C943F000C943F000C943F0030
S11300500C943F0011241FBECFE5D8E0DEBFCDBF16
S113006010E0A0E6B0E0EAEDF0E002C005900D92E9
S1130070A636B107D9F70E9441000C946B000C948A
S11300800000CF93DF9300D000D000D0CDB7DEB70F
S11300908FEF87BB86E0E0E6F0E0DE011196019089
S11300A00D928A95E1F780E009C0E1E0F0E0EC0F01
S11300B0FD1FE80FF11D908198BB8F5F8530A8F379
S11300C080E090E026960FB6F894DEBF0FBECDBF59
S10D00D0DF91CF910895F894FFCF5B
S10900DA30313241420006
S9030000FC
