:100000000C942A000C9434000C9434000C943400AA
:100010000C9434000C9434000C9434000C94340090
:100020000C9434000C9434000C9434000C94340080
:100030000C9434000C9434000C9434000C94340070
:100040000C9434000C9434000C9434000C94340060
:100050000C94340011241FBECFE5D8E0DEBFCDBF25
:100060000E9436000C9451000C9400008FEF87BB67
:10007000E8E3F0E0A5E560E177E249E150E0BAEAC3
:10008000A0839B01CA010197F1F721503040D1F7BD
:10009000B0839B01CA010197F1F721503040D1F79D
:0600A000EFCFF894FFCF42
:00000001FF
