:100000000C942A000C9434000C9434000C943400AA
:100010000C9434000C9434000C9434000C94340090
:100020000C9434000C9434000C9434000C94340080
:100030000C9434000C9434000C9434000C94340070
:100040000C9434000C9434000C9434000C94340060
:100050000C94340011241FBECFE5D8E0DEBFCDBF25
:100060000E9436000C944B000C9400008FEF8ABB6A
:1000700085E58BBBEBE3F0E060E177E249E150E03E
:100080008081809580839B01CA010197F1F72150FF
:0A0090003040D1F7F5CFF894FFCF10
:00000001FF
