:100000000C942A000C9434000C9434000C943400AA
:100010000C9434000C9434000C9434000C94340090
:100020000C9434000C9434000C9434000C94340080
:100030000C9434000C9434000C9434000C94340070
:100040000C9434000C9434000C9434000C94340060
:100050000C94340011241FBECFE5D8E0DEBFCDBF25
:100060000E9436000C9449000C9400008FEF87BB6F
:1000700060E0E8E3F0E0A0E3B5E749E150E0608349
:100080009D01CA010197F1F721503040D1F76F5F10
:06009000F6CFF894FFCF4B
:00000001FF
